{
  "_format": "hh-sol-artifact-1",
  "contractName": "DocumentRegistry",
  "sourceName": "contracts/DocumentRegistry.sol",
  "abi": [
    {
      "anonymous": false,
      "inputs": [
        {
          "indexed": false,
          "internalType": "string",
          "name": "hash",
          "type": "string"
        },
        {
          "indexed": false,
          "internalType": "uint256",
          "name": "timestamp",
          "type": "uint256"
        },
        {
          "indexed": false,
          "internalType": "uint256",
          "name": "userId",
          "type": "uint256"
        }
      ],
      "name": "DocumentStored",
      "type": "event"
    },
    {
      "inputs": [
        {
          "internalType": "string",
          "name": "",
          "type": "string"
        }
      ],
      "name": "documents",
      "outputs": [
        {
          "internalType": "string",
          "name": "hash",
          "type": "string"
        },
        {
          "internalType": "uint256",
          "name": "timestamp",
          "type": "uint256"
        },
        {
          "internalType": "uint256",
          "name": "userId",
          "type": "uint256"
        }
      ],
      "stateMutability": "view",
      "type": "function"
    },
    {
      "inputs": [
        {
          "internalType": "string",
          "name": "hash",
          "type": "string"
        },
        {
          "internalType": "uint256",
          "name": "timestamp",
          "type": "uint256"
        },
        {
          "internalType": "uint256",
          "name": "userId",
          "type": "uint256"
        }
      ],
      "name": "storeDocumentMeta",
      "outputs": [],
      "stateMutability": "nonpayable",
      "type": "function"
    }
  ],
  "bytecode": "0x6080604052348015600f57600080fd5b5061094d8061001f6000396000f3fe608060405234801561001057600080fd5b50600436106100365760003560e01c8063b3dd697b1461003b578063e0d028b21461006d575b600080fd5b610055600480360381019061005091906103c0565b610089565b604051610064939291906104a1565b60405180910390f35b6100876004803603810190610082919061050b565b610151565b005b6000818051602081018201805184825260208301602085012081835280955050505050506000915090508060000180546100c2906105a9565b80601f01602080910402602001604051908101604052809291908181526020018280546100ee906105a9565b801561013b5780601f106101105761010080835404028352916020019161013b565b820191906000526020600020905b81548152906001019060200180831161011e57829003601f168201915b5050505050908060010154908060020154905083565b600080846040516101629190610616565b9081526020016040518091039020600001805461017e906105a9565b9050146101c0576040517f08c379a00000000000000000000000000000000000000000000000000000000081526004016101b790610679565b60405180910390fd5b6040518060600160405280848152602001838152602001828152506000846040516101eb9190610616565b9081526020016040518091039020600082015181600001908161020e9190610845565b5060208201518160010155604082015181600201559050507fa5a161ceec064e89dea00ef32f133979cfd51d060573129fb59deb847d8502a9838383604051610259939291906104a1565b60405180910390a1505050565b6000604051905090565b600080fd5b600080fd5b600080fd5b600080fd5b6000601f19601f8301169050919050565b7f4e487b7100000000000000000000000000000000000000000000000000000000600052604160045260246000fd5b6102cd82610284565b810181811067ffffffffffffffff821117156102ec576102eb610295565b5b80604052505050565b60006102ff610266565b905061030b82826102c4565b919050565b600067ffffffffffffffff82111561032b5761032a610295565b5b61033482610284565b9050602081019050919050565b82818337600083830152505050565b600061036361035e84610310565b6102f5565b90508281526020810184848401111561037f5761037e61027f565b5b61038a848285610341565b509392505050565b600082601f8301126103a7576103a661027a565b5b81356103b7848260208601610350565b91505092915050565b6000602082840312156103d6576103d5610270565b5b600082013567ffffffffffffffff8111156103f4576103f3610275565b5b61040084828501610392565b91505092915050565b600081519050919050565b600082825260208201905092915050565b60005b83811015610443578082015181840152602081019050610428565b60008484015250505050565b600061045a82610409565b6104648185610414565b9350610474818560208601610425565b61047d81610284565b840191505092915050565b6000819050919050565b61049b81610488565b82525050565b600060608201905081810360008301526104bb818661044f565b90506104ca6020830185610492565b6104d76040830184610492565b949350505050565b6104e881610488565b81146104f357600080fd5b50565b600081359050610505816104df565b92915050565b60008060006060848603121561052457610523610270565b5b600084013567ffffffffffffffff81111561054257610541610275565b5b61054e86828701610392565b935050602061055f868287016104f6565b9250506040610570868287016104f6565b9150509250925092565b7f4e487b7100000000000000000000000000000000000000000000000000000000600052602260045260246000fd5b600060028204905060018216806105c157607f821691505b6020821081036105d4576105d361057a565b5b50919050565b600081905092915050565b60006105f082610409565b6105fa81856105da565b935061060a818560208601610425565b80840191505092915050565b600061062282846105e5565b915081905092915050565b7f446f63756d656e7420616c726561647920657869737473000000000000000000600082015250565b6000610663601783610414565b915061066e8261062d565b602082019050919050565b6000602082019050818103600083015261069281610656565b9050919050565b60008190508160005260206000209050919050565b60006020601f8301049050919050565b600082821b905092915050565b6000600883026106fb7fffffffffffffffffffffffffffffffffffffffffffffffffffffffffffffffff826106be565b61070586836106be565b95508019841693508086168417925050509392505050565b6000819050919050565b600061074261073d61073884610488565b61071d565b610488565b9050919050565b6000819050919050565b61075c83610727565b61077061076882610749565b8484546106cb565b825550505050565b600090565b610785610778565b610790818484610753565b505050565b5b818110156107b4576107a960008261077d565b600181019050610796565b5050565b601f8211156107f9576107ca81610699565b6107d3846106ae565b810160208510156107e2578190505b6107f66107ee856106ae565b830182610795565b50505b505050565b600082821c905092915050565b600061081c600019846008026107fe565b1980831691505092915050565b6000610835838361080b565b9150826002028217905092915050565b61084e82610409565b67ffffffffffffffff81111561086757610866610295565b5b61087182546105a9565b61087c8282856107b8565b600060209050601f8311600181146108af576000841561089d578287015190505b6108a78582610829565b86555061090f565b601f1984166108bd86610699565b60005b828110156108e5578489015182556001820191506020850194506020810190506108c0565b8683101561090257848901516108fe601f89168261080b565b8355505b6001600288020188555050505b50505050505056fea2646970667358221220a09fd34459b3e065fc1499a8452f8e2575bc737733a934244aaab35e3e9159c164736f6c634300081b0033",
  "linkReferences": {},
  "deployedLinkReferences": {}
}